{"abi":[{"type":"constructor","inputs":[{"name":"asset","type":"address","internalType":"contract ERC20"}],"stateMutability":"nonpayable"},{"type":"function","name":"CYCLE_DURATION","inputs":[],"outputs":[{"name":"","type":"uint256","internalType":"uint256"}],"stateMutability":"view"},{"type":"function","name":"EARLY_WITHDRAWAL_PENALTY","inputs":[],"outputs":[{"name":"","type":"uint256","internalType":"uint256"}],"stateMutability":"view"},{"type":"function","name":"FEE_PERCENTAGE","inputs":[],"outputs":[{"name":"","type":"uint256","internalType":"uint256"}],"stateMutability":"view"},{"type":"function","name":"allowance","inputs":[{"name":"owner","type":"address","internalType":"address"},{"name":"spender","type":"address","internalType":"address"}],"outputs":[{"name":"","type":"uint256","internalType":"uint256"}],"stateMutability":"view"},{"type":"function","name":"approve","inputs":[{"name":"spender","type":"address","internalType":"address"},{"name":"value","type":"uint256","internalType":"uint256"}],"outputs":[{"name":"","type":"bool","internalType":"bool"}],"stateMutability":"nonpayable"},{"type":"function","name":"asset","inputs":[],"outputs":[{"name":"","type":"address","internalType":"address"}],"stateMutability":"view"},{"type":"function","name":"balanceOf","inputs":[{"name":"account","type":"address","internalType":"address"}],"outputs":[{"name":"","type":"uint256","internalType":"uint256"}],"stateMutability":"view"},{"type":"function","name":"calculateRewards","inputs":[{"name":"holder","type":"address","internalType":"address"}],"outputs":[{"name":"","type":"uint256","internalType":"uint256"}],"stateMutability":"view"},{"type":"function","name":"convertToAssets","inputs":[{"name":"shares","type":"uint256","internalType":"uint256"}],"outputs":[{"name":"","type":"uint256","internalType":"uint256"}],"stateMutability":"view"},{"type":"function","name":"convertToShares","inputs":[{"name":"assets","type":"uint256","internalType":"uint256"}],"outputs":[{"name":"","type":"uint256","internalType":"uint256"}],"stateMutability":"view"},{"type":"function","name":"decimals","inputs":[],"outputs":[{"name":"","type":"uint8","internalType":"uint8"}],"stateMutability":"view"},{"type":"function","name":"deposit","inputs":[{"name":"assets","type":"uint256","internalType":"uint256"},{"name":"receiver","type":"address","internalType":"address"}],"outputs":[{"name":"","type":"uint256","internalType":"uint256"}],"stateMutability":"nonpayable"},{"type":"function","name":"deposits","inputs":[{"name":"","type":"address","internalType":"address"},{"name":"","type":"uint256","internalType":"uint256"}],"outputs":[{"name":"amount","type":"uint256","internalType":"uint256"},{"name":"timestamp","type":"uint256","internalType":"uint256"}],"stateMutability":"view"},{"type":"function","name":"distributeEarnings","inputs":[],"outputs":[],"stateMutability":"nonpayable"},{"type":"function","name":"getRewardPool","inputs":[],"outputs":[{"name":"","type":"uint256","internalType":"uint256"}],"stateMutability":"view"},{"type":"function","name":"getShares","inputs":[{"name":"holder","type":"address","internalType":"address"}],"outputs":[{"name":"","type":"uint256","internalType":"uint256"}],"stateMutability":"view"},{"type":"function","name":"getTimeUntilRedeem","inputs":[{"name":"holder","type":"address","internalType":"address"}],"outputs":[{"name":"","type":"uint256","internalType":"uint256"}],"stateMutability":"view"},{"type":"function","name":"getTotalFees","inputs":[],"outputs":[{"name":"","type":"uint256","internalType":"uint256"}],"stateMutability":"view"},{"type":"function","name":"maxDeposit","inputs":[{"name":"","type":"address","internalType":"address"}],"outputs":[{"name":"","type":"uint256","internalType":"uint256"}],"stateMutability":"view"},{"type":"function","name":"maxMint","inputs":[{"name":"","type":"address","internalType":"address"}],"outputs":[{"name":"","type":"uint256","internalType":"uint256"}],"stateMutability":"view"},{"type":"function","name":"maxRedeem","inputs":[{"name":"owner","type":"address","internalType":"address"}],"outputs":[{"name":"","type":"uint256","internalType":"uint256"}],"stateMutability":"view"},{"type":"function","name":"maxWithdraw","inputs":[{"name":"owner","type":"address","internalType":"address"}],"outputs":[{"name":"","type":"uint256","internalType":"uint256"}],"stateMutability":"view"},{"type":"function","name":"mint","inputs":[{"name":"shares","type":"uint256","internalType":"uint256"},{"name":"receiver","type":"address","internalType":"address"}],"outputs":[{"name":"","type":"uint256","internalType":"uint256"}],"stateMutability":"nonpayable"},{"type":"function","name":"name","inputs":[],"outputs":[{"name":"","type":"string","internalType":"string"}],"stateMutability":"view"},{"type":"function","name":"pause","inputs":[],"outputs":[],"stateMutability":"nonpayable"},{"type":"function","name":"previewDeposit","inputs":[{"name":"assets","type":"uint256","internalType":"uint256"}],"outputs":[{"name":"","type":"uint256","internalType":"uint256"}],"stateMutability":"view"},{"type":"function","name":"previewMint","inputs":[{"name":"shares","type":"uint256","internalType":"uint256"}],"outputs":[{"name":"","type":"uint256","internalType":"uint256"}],"stateMutability":"view"},{"type":"function","name":"previewRedeem","inputs":[{"name":"shares","type":"uint256","internalType":"uint256"}],"outputs":[{"name":"","type":"uint256","internalType":"uint256"}],"stateMutability":"view"},{"type":"function","name":"previewWithdraw","inputs":[{"name":"assets","type":"uint256","internalType":"uint256"}],"outputs":[{"name":"","type":"uint256","internalType":"uint256"}],"stateMutability":"view"},{"type":"function","name":"redeem","inputs":[{"name":"shares","type":"uint256","internalType":"uint256"},{"name":"receiver","type":"address","internalType":"address"},{"name":"owner","type":"address","internalType":"address"}],"outputs":[{"name":"","type":"uint256","internalType":"uint256"}],"stateMutability":"nonpayable"},{"type":"function","name":"rewardPool","inputs":[],"outputs":[{"name":"","type":"uint256","internalType":"uint256"}],"stateMutability":"view"},{"type":"function","name":"shareHolder","inputs":[{"name":"","type":"address","internalType":"address"}],"outputs":[{"name":"","type":"uint256","internalType":"uint256"}],"stateMutability":"view"},{"type":"function","name":"stake","inputs":[{"name":"vaultAssets","type":"uint256","internalType":"uint256"},{"name":"vaultReceiver","type":"address","internalType":"address"}],"outputs":[{"name":"shares","type":"uint256","internalType":"uint256"}],"stateMutability":"nonpayable"},{"type":"function","name":"symbol","inputs":[],"outputs":[{"name":"","type":"string","internalType":"string"}],"stateMutability":"view"},{"type":"function","name":"totalAssets","inputs":[],"outputs":[{"name":"","type":"uint256","internalType":"uint256"}],"stateMutability":"view"},{"type":"function","name":"totalSupply","inputs":[],"outputs":[{"name":"","type":"uint256","internalType":"uint256"}],"stateMutability":"view"},{"type":"function","name":"transfer","inputs":[{"name":"to","type":"address","internalType":"address"},{"name":"value","type":"uint256","internalType":"uint256"}],"outputs":[{"name":"","type":"bool","internalType":"bool"}],"stateMutability":"nonpayable"},{"type":"function","name":"transferFrom","inputs":[{"name":"from","type":"address","internalType":"address"},{"name":"to","type":"address","internalType":"address"},{"name":"value","type":"uint256","internalType":"uint256"}],"outputs":[{"name":"","type":"bool","internalType":"bool"}],"stateMutability":"nonpayable"},{"type":"function","name":"unpause","inputs":[],"outputs":[],"stateMutability":"nonpayable"},{"type":"function","name":"unstake","inputs":[{"name":"vaultAssets","type":"uint256","internalType":"uint256"},{"name":"vaultReceiver","type":"address","internalType":"address"},{"name":"vaultOwner","type":"address","internalType":"address"}],"outputs":[{"name":"shares","type":"uint256","internalType":"uint256"}],"stateMutability":"nonpayable"},{"type":"function","name":"vaultRedeem","inputs":[{"name":"vaultShares","type":"uint256","internalType":"uint256"},{"name":"vaultReceiver","type":"address","internalType":"address"},{"name":"vaultOwner","type":"address","internalType":"address"}],"outputs":[{"name":"assets","type":"uint256","internalType":"uint256"}],"stateMutability":"nonpayable"},{"type":"function","name":"withdraw","inputs":[{"name":"assets","type":"uint256","internalType":"uint256"},{"name":"receiver","type":"address","internalType":"address"},{"name":"owner","type":"address","internalType":"address"}],"outputs":[{"name":"","type":"uint256","internalType":"uint256"}],"stateMutability":"nonpayable"},{"type":"event","name":"Approval","inputs":[{"name":"owner","type":"address","indexed":true,"internalType":"address"},{"name":"spender","type":"address","indexed":true,"internalType":"address"},{"name":"value","type":"uint256","indexed":false,"internalType":"uint256"}],"anonymous":false},{"type":"event","name":"Deposit","inputs":[{"name":"sender","type":"address","indexed":true,"internalType":"address"},{"name":"owner","type":"address","indexed":true,"internalType":"address"},{"name":"assets","type":"uint256","indexed":false,"internalType":"uint256"},{"name":"shares","type":"uint256","indexed":false,"internalType":"uint256"}],"anonymous":false},{"type":"event","name":"EarningsDistributed","inputs":[{"name":"amount","type":"uint256","indexed":false,"internalType":"uint256"}],"anonymous":false},{"type":"event","name":"FeesCollected","inputs":[{"name":"amount","type":"uint256","indexed":false,"internalType":"uint256"}],"anonymous":false},{"type":"event","name":"Paused","inputs":[],"anonymous":false},{"type":"event","name":"Transfer","inputs":[{"name":"from","type":"address","indexed":true,"internalType":"address"},{"name":"to","type":"address","indexed":true,"internalType":"address"},{"name":"value","type":"uint256","indexed":false,"internalType":"uint256"}],"anonymous":false},{"type":"event","name":"Unpaused","inputs":[],"anonymous":false},{"type":"event","name":"Withdraw","inputs":[{"name":"sender","type":"address","indexed":true,"internalType":"address"},{"name":"receiver","type":"address","indexed":true,"internalType":"address"},{"name":"owner","type":"address","indexed":true,"internalType":"address"},{"name":"assets","type":"uint256","indexed":false,"internalType":"uint256"},{"name":"shares","type":"uint256","indexed":false,"internalType":"uint256"}],"anonymous":false},{"type":"error","name":"AddressEmptyCode","inputs":[{"name":"target","type":"address","internalType":"address"}]},{"type":"error","name":"AddressInsufficientBalance","inputs":[{"name":"account","type":"address","internalType":"address"}]},{"type":"error","name":"ERC20InsufficientAllowance","inputs":[{"name":"spender","type":"address","internalType":"address"},{"name":"allowance","type":"uint256","internalType":"uint256"},{"name":"needed","type":"uint256","internalType":"uint256"}]},{"type":"error","name":"ERC20InsufficientBalance","inputs":[{"name":"sender","type":"address","internalType":"address"},{"name":"balance","type":"uint256","internalType":"uint256"},{"name":"needed","type":"uint256","internalType":"uint256"}]},{"type":"error","name":"ERC20InvalidApprover","inputs":[{"name":"approver","type":"address","internalType":"address"}]},{"type":"error","name":"ERC20InvalidReceiver","inputs":[{"name":"receiver","type":"address","internalType":"address"}]},{"type":"error","name":"ERC20InvalidSender","inputs":[{"name":"sender","type":"address","internalType":"address"}]},{"type":"error","name":"ERC20InvalidSpender","inputs":[{"name":"spender","type":"address","internalType":"address"}]},{"type":"error","name":"ERC4626ExceededMaxDeposit","inputs":[{"name":"receiver","type":"address","internalType":"address"},{"name":"assets","type":"uint256","internalType":"uint256"},{"name":"max","type":"uint256","internalType":"uint256"}]},{"type":"error","name":"ERC4626ExceededMaxMint","inputs":[{"name":"receiver","type":"address","internalType":"address"},{"name":"shares","type":"uint256","internalType":"uint256"},{"name":"max","type":"uint256","internalType":"uint256"}]},{"type":"error","name":"ERC4626ExceededMaxRedeem","inputs":[{"name":"owner","type":"address","internalType":"address"},{"name":"shares","type":"uint256","internalType":"uint256"},{"name":"max","type":"uint256","internalType":"uint256"}]},{"type":"error","name":"ERC4626ExceededMaxWithdraw","inputs":[{"name":"owner","type":"address","internalType":"address"},{"name":"assets","type":"uint256","internalType":"uint256"},{"name":"max","type":"uint256","internalType":"uint256"}]},{"type":"error","name":"FailedInnerCall","inputs":[]},{"type":"error","name":"MathOverflowedMulDiv","inputs":[]},{"type":"error","name":"ReentrancyGuardReentrantCall","inputs":[]},{"type":"error","name":"SafeERC20FailedOperation","inputs":[{"name":"token","type":"address","internalType":"address"}]}],"bytecode":{"object":"0x60c060405234801561001057600080fd5b506040516123c13803806123c183398101604081905261002f916101c7565b806040518060400160405280600781526020016615dbc8151a5c0b60ca1b8152506040518060400160405280600381526020016205754560ec1b815250816003908161007b9190610296565b5060046100888282610296565b50505060008061009d836100eb60201b60201c565b91509150816100ad5760126100af565b805b60ff1660a05250506001600160a01b0316608052506001600555600680546001600160a81b0319163360ff60a01b19161790554260095561039c565b60408051600481526024810182526020810180516001600160e01b031663313ce56760e01b17905290516000918291829182916001600160a01b0387169161013291610354565b600060405180830381855afa9150503d806000811461016d576040519150601f19603f3d011682016040523d82523d6000602084013e610172565b606091505b509150915081801561018657506020815110155b156101ba576000818060200190518101906101a19190610383565b905060ff81116101b8576001969095509350505050565b505b5060009485945092505050565b6000602082840312156101d957600080fd5b81516001600160a01b03811681146101f057600080fd5b9392505050565b634e487b7160e01b600052604160045260246000fd5b600181811c9082168061022157607f821691505b60208210810361024157634e487b7160e01b600052602260045260246000fd5b50919050565b601f82111561029157806000526020600020601f840160051c8101602085101561026e5750805b601f840160051c820191505b8181101561028e576000815560010161027a565b50505b505050565b81516001600160401b038111156102af576102af6101f7565b6102c3816102bd845461020d565b84610247565b6020601f8211600181146102f757600083156102df5750848201515b600019600385901b1c1916600184901b17845561028e565b600084815260208120601f198516915b828110156103275787850151825560209485019460019092019101610307565b50848210156103455786840151600019600387901b60f8161c191681555b50505050600190811b01905550565b6000825160005b81811015610375576020818601810151858301520161035b565b506000920191825250919050565b60006020828403121561039557600080fd5b5051919050565b60805160a051611feb6103d66000396000610a560152600081816103530152818161059e0152818161143f01526114ff0152611feb6000f3fe608060405234801561001057600080fd5b506004361061025d5760003560e01c806370a0823111610146578063ba087652116100c3578063d6d6817711610087578063d6d68177146104c9578063d905777e146104f1578063dd62ed3e14610504578063ef8b30f714610499578063f04da65b1461053d578063f071f4fd1461056657600080fd5b8063ba08765214610486578063c63d75b614610387578063c6e6f59214610499578063cd421fbf146104ac578063ce96cb77146104b657600080fd5b806395d89b411161010a57806395d89b4114610445578063a9059cbb1461044d578063b3d7f6b914610460578063b460af9414610473578063b918ee251461026257600080fd5b806370a08231146103e657806376577eae1461040f5780637acb7757146104175780638456cb591461042a57806394bf804d1461043257600080fd5b8063307a5ef4116101df5780634cdad506116101a35780634cdad5061461029a5780634f5aa4c21461039c578063626e1ae7146103af57806364ab8675146103b757806366666aa9146103ca5780636e553f65146103d357600080fd5b8063307a5ef414610319578063313ce5671461032c57806338d52e0f146103465780633f4ba83a1461037d578063402d267d1461038757600080fd5b80630a28a477116102265780630a28a477146102d05780630ef5fd43146102e357806318160ddd146102f65780631b8b13a7146102fe57806323b872dd1461030657600080fd5b80620b46f81461026257806301e1d1141461027d57806306fdde031461028557806307a2d13a1461029a578063095ea7b3146102ad575b600080fd5b61026a600a81565b6040519081526020015b60405180910390f35b61026a610586565b61028d610616565b6040516102749190611b31565b61026a6102a8366004611b64565b6106a8565b6102c06102bb366004611b99565b6106bb565b6040519015158152602001610274565b61026a6102de366004611b64565b6106d3565b61026a6102f1366004611bc3565b6106e0565b60025461026a565b60075461026a565b6102c0610314366004611bde565b6107d1565b61026a610327366004611c1b565b6107f7565b610334610a4e565b60405160ff9091168152602001610274565b6040516001600160a01b037f0000000000000000000000000000000000000000000000000000000000000000168152602001610274565b610385610a7a565b005b61026a610395366004611bc3565b5060001990565b61026a6103aa366004611c1b565b610adc565b60085461026a565b61026a6103c5366004611bc3565b610d8d565b61026a60075481565b61026a6103e1366004611c57565b610dd6565b61026a6103f4366004611bc3565b6001600160a01b031660009081526020819052604090205490565b610385610df4565b61026a610425366004611c57565b610f80565b6103856110f1565b61026a610440366004611c57565b611159565b61028d611177565b6102c061045b366004611b99565b611186565b61026a61046e366004611b64565b611194565b61026a610481366004611c1b565b6111a1565b61026a610494366004611c1b565b6111f0565b61026a6104a7366004611b64565b61123f565b61026a62093a8081565b61026a6104c4366004611bc3565b61124c565b6104dc6104d7366004611b99565b611270565b60408051928352602083019190915201610274565b61026a6104ff366004611bc3565b6112ac565b61026a610512366004611c83565b6001600160a01b03918216600090815260016020908152604080832093909416825291909152205490565b61026a61054b366004611bc3565b6001600160a01b03166000908152600b602052604090205490565b61026a610574366004611bc3565b600b6020526000908152604090205481565b6040516370a0823160e01b81523060048201526000907f00000000000000000000000000000000000000000000000000000000000000006001600160a01b0316906370a0823190602401602060405180830381865afa1580156105ed573d6000803e3d6000fd5b505050506040513d601f19601f820116820180604052508101906106119190611cad565b905090565b60606003805461062590611cc6565b80601f016020809104026020016040519081016040528092919081815260200182805461065190611cc6565b801561069e5780601f106106735761010080835404028352916020019161069e565b820191906000526020600020905b81548152906001019060200180831161068157829003601f168201915b5050505050905090565b60006106b58260006112ca565b92915050565b6000336106c9818585611304565b5060019392505050565b60006106b5826001611316565b6001600160a01b0381166000908152600c602052604081205461074a5760405162461bcd60e51b815260206004820152601a60248201527f4e6f206465706f7369747320666f756e6420666f72207573657200000000000060448201526064015b60405180910390fd5b6001600160a01b0382166000908152600c602052604081208054829061077257610772611d00565b600091825260208083206040805180820190915260029093020180548352600101549082018190529092506107ab9062093a8090611d2c565b9050804210156107c7576107bf4282611d3f565b949350505050565b5060009392505050565b6000336107df858285611346565b6107ea8585856113b1565b60019150505b9392505050565b600654600090600160a01b900460ff16156108245760405162461bcd60e51b815260040161074190611d52565b6001600160a01b0383166000908152600c602052604081208054829061084c5761084c611d00565b9060005260206000209060020201604051806040016040529081600082015481526020016001820154815250509050600085116108d65760405162461bcd60e51b815260206004820152602260248201527f5661756c74536861726573206d7573742062652067726561746572207468616e604482015261020360f41b6064820152608401610741565b6001600160a01b03841661092c5760405162461bcd60e51b815260206004820152601e60248201527f5265636569766572206d757374206e6f742062652061646472657373203000006044820152606401610741565b4262093a8082602001516109409190611d2c565b111561099a5760405162461bcd60e51b8152602060048201526024808201527f4465706f736974206e6f74206d6574207468652074696d6520666f72207265776044820152636172647360e01b6064820152608401610741565b60006109a5866106a8565b9050600060646109b6600a84611d82565b6109c09190611daf565b905080600860008282546109d49190611d2c565b90915550506008546109e890600290611daf565b600760008282546109f99190611d2c565b90915550506001600160a01b0385166000908152600b602052604081208054899290610a26908490611d3f565b90915550610a3790508787876111f0565b9350610a438185611d3f565b979650505050505050565b6000610611817f0000000000000000000000000000000000000000000000000000000000000000611dc3565b6006546001600160a01b03163314610aa45760405162461bcd60e51b815260040161074190611ddc565b6006805460ff60a01b191690556040517fa45f47fdea8a1efdd9029a5691c7f759c32b7c698632b563573e155625d1693390600090a1565b600654600090600160a01b900460ff1615610b095760405162461bcd60e51b815260040161074190611d52565b610b11611410565b60008411610b615760405162461bcd60e51b815260206004820152601d60248201527f417373657473206d7573742062652067726561746572207468616e20300000006044820152606401610741565b6001600160a01b038316610bb75760405162461bcd60e51b815260206004820152601e60248201527f5265636569766572206d757374206e6f742062652061646472657373203000006044820152606401610741565b6001600160a01b0382166000908152600b60205260409020548410610c2e5760405162461bcd60e51b815260206004820152602760248201527f496e73756666696369656e742066756e64732f5472616e73666572206e6f7420604482015266185b1b1bddd95960ca1b6064820152608401610741565b60006064610c3d600a87611d82565b610c479190611daf565b6001600160a01b0385166000908152600c60205260408120549192509015610ced576001600160a01b0385166000908152600c6020526040812080548290610c9157610c91611d00565b60009182526020918290206040805180820190915260029092020180548252600101549181018290529150610cca9062093a8090611d2c565b421015610ceb576064610cde600a89611d82565b610ce89190611daf565b91505b505b610cf78183611d2c565b60086000828254610d089190611d2c565b9091555050600854610d1c90600290611daf565b60076000828254610d2d9190611d2c565b90915550506001600160a01b0384166000908152600b602052604081208054889290610d5a908490611d3f565b90915550610d7f905081610d6e8489611d3f565b610d789190611d3f565b86866111a1565b925050506107f06001600555565b6001600160a01b0381166000908152600b602052604081205481610db060025490565b905060008183600754610dc39190611d82565b610dcd9190611daf565b95945050505050565b60006000196000610de68561123f565b90506107bf3385878461143a565b6006546001600160a01b03163314610e1e5760405162461bcd60e51b815260040161074190611ddc565b610e26611410565b62093a80600954610e379190611d2c565b421015610e925760405162461bcd60e51b815260206004820152602360248201527f456c206369636c6f206465207374616b696e67206e6f206861207465726d696e60448201526261646f60e81b6064820152608401610741565b6007544260095560005b600a54811015610f3a576000600a8281548110610ebb57610ebb611d00565b60009182526020808320909101546001600160a01b0316808352600b9091526040909120549091508015610f30576000610ef483610d8d565b9050610f008184611159565b506001600160a01b0383166000908152600b602052604081208054839290610f29908490611d2c565b9091555050505b5050600101610e9c565b5060006007556040518181527fa9a78d0255dbe7f4937c3e437f23389b319d39daf1caac805863688ce92595df9060200160405180910390a150610f7e6001600555565b565b600654600090600160a01b900460ff1615610fad5760405162461bcd60e51b815260040161074190611d52565b610fb5611410565b600083116110055760405162461bcd60e51b815260206004820152601d60248201527f417373657473206d7573742062652067726561746572207468616e20300000006044820152606401610741565b61100f8383610dd6565b6001600160a01b0383166000818152600c6020908152604080832081518083018352898152428185019081528254600181810185559387528587209251600290910290920191825551910155928252600b905290812054919250036110ba57600a80546001810182556000919091527fc65a7bb8d6351c1cf70c95a316cc6a92839c986682d98bc35f958f4883f9d2a80180546001600160a01b0319166001600160a01b0384161790555b6001600160a01b0382166000908152600b6020526040812080548392906110e2908490611d2c565b90915550506106b56001600555565b6006546001600160a01b0316331461111b5760405162461bcd60e51b815260040161074190611ddc565b6006805460ff60a01b1916600160a01b1790556040517f9e87fac88ff661f02d44f95383c817fece4bce600a3dab7a54406878b965e75290600090a1565b6000600019600061116985611194565b90506107bf3385838861143a565b60606004805461062590611cc6565b6000336106c98185856113b1565b60006106b58260016112ca565b6000806111ad8361124c565b9050808511156111d657828582604051633fa733bb60e21b815260040161074193929190611e28565b60006111e1866106d3565b9050610dcd33868689856114cc565b6000806111fc836112ac565b90508085111561122557828582604051632e52afbb60e21b815260040161074193929190611e28565b6000611230866106a8565b9050610dcd338686848a6114cc565b60006106b5826000611316565b6001600160a01b0381166000908152602081905260408120546106b59060006112ca565b600c602052816000526040600020818154811061128c57600080fd5b600091825260209091206002909102018054600190910154909250905082565b6001600160a01b0381166000908152602081905260408120546106b5565b60006107f06112d7610586565b6112e2906001611d2c565b6112ee6000600a611f30565b6002546112fb9190611d2c565b8591908561158c565b61131183838360016115db565b505050565b60006107f061132682600a611f30565b6002546113339190611d2c565b61133b610586565b6112fb906001611d2c565b6001600160a01b0383811660009081526001602090815260408083209386168352929052205460001981146113ab578181101561139c57828183604051637dc7a0d960e11b815260040161074193929190611e28565b6113ab848484840360006115db565b50505050565b6001600160a01b0383166113db57604051634b637e8f60e11b815260006004820152602401610741565b6001600160a01b0382166114055760405163ec442f0560e01b815260006004820152602401610741565b6113118383836116a2565b60026005540361143357604051633ee5aeb560e01b815260040160405180910390fd5b6002600555565b6114667f00000000000000000000000000000000000000000000000000000000000000008530856117b9565b6114708382611820565b826001600160a01b0316846001600160a01b03167fdcbc1c05240f31ff3ad067ef1ee35ce4997762752e3a095284754544f4c709d784846040516114be929190918252602082015260400190565b60405180910390a350505050565b826001600160a01b0316856001600160a01b0316146114f0576114f0838683611346565b6114fa838261185a565b6115257f00000000000000000000000000000000000000000000000000000000000000008584611890565b826001600160a01b0316846001600160a01b0316866001600160a01b03167ffbde797d201c681b91056529119e0b02407c7bb96a4a2c75c01fc9667232c8db858560405161157d929190918252602082015260400190565b60405180910390a45050505050565b60008061159a8686866118c1565b90506115a583611985565b80156115c15750600084806115bc576115bc611d99565b868809115b15610dcd576115d1600182611d2c565b9695505050505050565b6001600160a01b0384166116055760405163e602df0560e01b815260006004820152602401610741565b6001600160a01b03831661162f57604051634a1406b160e11b815260006004820152602401610741565b6001600160a01b03808516600090815260016020908152604080832093871683529290522082905580156113ab57826001600160a01b0316846001600160a01b03167f8c5be1e5ebec7d5bd14f71427d1e84f3dd0314c0f7b2291e5b200ac8c7c3b925846040516114be91815260200190565b6001600160a01b0383166116cd5780600260008282546116c29190611d2c565b9091555061172c9050565b6001600160a01b0383166000908152602081905260409020548181101561170d5783818360405163391434e360e21b815260040161074193929190611e28565b6001600160a01b03841660009081526020819052604090209082900390555b6001600160a01b03821661174857600280548290039055611767565b6001600160a01b03821660009081526020819052604090208054820190555b816001600160a01b0316836001600160a01b03167fddf252ad1be2c89b69c2b068fc378daa952ba7f163c4a11628f55a4df523b3ef836040516117ac91815260200190565b60405180910390a3505050565b6040516001600160a01b0384811660248301528381166044830152606482018390526113ab9186918216906323b872dd906084015b604051602081830303815290604052915060e01b6020820180516001600160e01b0383818316178352505050506119b2565b6001600160a01b03821661184a5760405163ec442f0560e01b815260006004820152602401610741565b611856600083836116a2565b5050565b6001600160a01b03821661188457604051634b637e8f60e11b815260006004820152602401610741565b611856826000836116a2565b6040516001600160a01b0383811660248301526044820183905261131191859182169063a9059cbb906064016117ee565b60008383028160001985870982811083820303915050806000036118f8578382816118ee576118ee611d99565b04925050506107f0565b8084116119185760405163227bc15360e01b815260040160405180910390fd5b6000848688096000868103871696879004966002600389028118808a02820302808a02820302808a02820302808a02820302808a02820302808a02909103029181900381900460010186841190950394909402919094039290920491909117919091029150509392505050565b6000600282600381111561199b5761199b611f3f565b6119a59190611f55565b60ff166001149050919050565b60006119c76001600160a01b03841683611a15565b905080516000141580156119ec5750808060200190518101906119ea9190611f77565b155b1561131157604051635274afe760e01b81526001600160a01b0384166004820152602401610741565b60606107f08383600084600080856001600160a01b03168486604051611a3b9190611f99565b60006040518083038185875af1925050503d8060008114611a78576040519150601f19603f3d011682016040523d82523d6000602084013e611a7d565b606091505b50915091506115d1868383606082611a9d57611a9882611ae4565b6107f0565b8151158015611ab457506001600160a01b0384163b155b15611add57604051639996b31560e01b81526001600160a01b0385166004820152602401610741565b50806107f0565b805115611af45780518082602001fd5b604051630a12f52160e11b815260040160405180910390fd5b60005b83811015611b28578181015183820152602001611b10565b50506000910152565b6020815260008251806020840152611b50816040850160208701611b0d565b601f01601f19169190910160400192915050565b600060208284031215611b7657600080fd5b5035919050565b80356001600160a01b0381168114611b9457600080fd5b919050565b60008060408385031215611bac57600080fd5b611bb583611b7d565b946020939093013593505050565b600060208284031215611bd557600080fd5b6107f082611b7d565b600080600060608486031215611bf357600080fd5b611bfc84611b7d565b9250611c0a60208501611b7d565b929592945050506040919091013590565b600080600060608486031215611c3057600080fd5b83359250611c4060208501611b7d565b9150611c4e60408501611b7d565b90509250925092565b60008060408385031215611c6a57600080fd5b82359150611c7a60208401611b7d565b90509250929050565b60008060408385031215611c9657600080fd5b611c9f83611b7d565b9150611c7a60208401611b7d565b600060208284031215611cbf57600080fd5b5051919050565b600181811c90821680611cda57607f821691505b602082108103611cfa57634e487b7160e01b600052602260045260246000fd5b50919050565b634e487b7160e01b600052603260045260246000fd5b634e487b7160e01b600052601160045260246000fd5b808201808211156106b5576106b5611d16565b818103818111156106b5576106b5611d16565b602080825260169082015275151a194818dbdb9d1c9858dd081a5cc81c185d5cd95960521b604082015260600190565b80820281158282048414176106b5576106b5611d16565b634e487b7160e01b600052601260045260246000fd5b600082611dbe57611dbe611d99565b500490565b60ff81811683821601908111156106b5576106b5611d16565b6020808252602c908201527f5468652066756e6374696f6e206973207265737472696374656420746f20746860408201526b65206f776e6572206f6e6c7960a01b606082015260800190565b6001600160a01b039390931683526020830191909152604082015260600190565b6001815b6001841115611e8457808504811115611e6857611e68611d16565b6001841615611e7657908102905b60019390931c928002611e4d565b935093915050565b600082611e9b575060016106b5565b81611ea8575060006106b5565b8160018114611ebe5760028114611ec857611ee4565b60019150506106b5565b60ff841115611ed957611ed9611d16565b50506001821b6106b5565b5060208310610133831016604e8410600b8410161715611f07575081810a6106b5565b611f146000198484611e49565b8060001904821115611f2857611f28611d16565b029392505050565b60006107f060ff841683611e8c565b634e487b7160e01b600052602160045260246000fd5b600060ff831680611f6857611f68611d99565b8060ff84160691505092915050565b600060208284031215611f8957600080fd5b815180151581146107f057600080fd5b60008251611fab818460208701611b0d565b919091019291505056fea2646970667358221220ca1c6da5c1121f48a975b49024125408da24e4a22c9d0f817053cacfa9ce707e64736f6c634300081b0033","linkReferences":{}},"methodIdentifiers":{"CYCLE_DURATION()":"cd421fbf","EARLY_WITHDRAWAL_PENALTY()":"b918ee25","FEE_PERCENTAGE()":"000b46f8","allowance(address,address)":"dd62ed3e","approve(address,uint256)":"095ea7b3","asset()":"38d52e0f","balanceOf(address)":"70a08231","calculateRewards(address)":"64ab8675","convertToAssets(uint256)":"07a2d13a","convertToShares(uint256)":"c6e6f592","decimals()":"313ce567","deposit(uint256,address)":"6e553f65","deposits(address,uint256)":"d6d68177","distributeEarnings()":"76577eae","getRewardPool()":"1b8b13a7","getShares(address)":"f04da65b","getTimeUntilRedeem(address)":"0ef5fd43","getTotalFees()":"626e1ae7","maxDeposit(address)":"402d267d","maxMint(address)":"c63d75b6","maxRedeem(address)":"d905777e","maxWithdraw(address)":"ce96cb77","mint(uint256,address)":"94bf804d","name()":"06fdde03","pause()":"8456cb59","previewDeposit(uint256)":"ef8b30f7","previewMint(uint256)":"b3d7f6b9","previewRedeem(uint256)":"4cdad506","previewWithdraw(uint256)":"0a28a477","redeem(uint256,address,address)":"ba087652","rewardPool()":"66666aa9","shareHolder(address)":"f071f4fd","stake(uint256,address)":"7acb7757","symbol()":"95d89b41","totalAssets()":"01e1d114","totalSupply()":"18160ddd","transfer(address,uint256)":"a9059cbb","transferFrom(address,address,uint256)":"23b872dd","unpause()":"3f4ba83a","unstake(uint256,address,address)":"4f5aa4c2","vaultRedeem(uint256,address,address)":"307a5ef4","withdraw(uint256,address,address)":"b460af94"},"id":0}